:020000040800F2
:10000000F807002085490008013900080339000875
:100010000539000807390008093900080000000008
:100020000000000000000000000000000B39000884
:100030000D390008000000000F39000811390008D0
:10004000C5490008C9490008CD49000825390008FC
:10005000D5490008D94900083D2500086525000854
:1000600073250008852500089B250008F149000834
:10007000F5490008F9490008FD490008014A00084F
:10008000054A0008094A000857260008114A0008D6
:10009000154A0008194A00081D4A0008A925000849
:1000A000254A0008294A00082D4A0008314A00085C
:1000B000F3240008212500083D4A00088540000877
:1000C00053400008494A00084D4A00080526000828
:1000D0002F260008D72500085D4A0008614A00085D
:1000E000C9250008694A00086D4A0008714A0008DD
:1000F000754A00082DE9F04FA5B0804615461E460A
:100100000FF2B050D0E90023CDE91223049104AFDF
:100110000020786214AC6FF0004900E055440020E4
:10012000ADF8020012AB4FF0FF3229460DF102008C
:1001300001F00DF88246BAF1010F08DA2878B0F123
:10014000010A6AEB0A0A6FEA0A004FEAD07ABDF8A0
:10015000020025280CBFAAF101035346012B07DB3F
:100160002A4602A9404600F0CEFF002800F1E780B1
:10017000BDF80200252807D10020F86038617861B9
:10018000B861F861386205E00028C7D1786A99E261
:1001900040F0010015F8011F2029F9D023290DD0C6
:1001A0002B2904D02D2906D030290AD00CE040F0AC
:1001B000020080B2EEE740F00400FAE740F00800E9
:1001C000F7E740F01000F4E72A290DD131680A1D45
:1001D00032600968F962002904D54942F96240F0A9
:1001E000040080B26D1C12E00021F96209E0F96A96
:1001F000494505D001EB810302EB43013039F96237
:100200006D1C2A78A2F13001C9B20A29EFD32978EE
:100210002E2903D04FF0FF31B9621DE015F8011F00
:100220002A2906D131680A1D32600968B9626D1C3D
:1002300012E00021B96209E0B96A494505D001EB35
:10024000810302EB43013039B9626D1C2A78A2F1B7
:100250003001C9B20A29EFD3388629780FF25C4001
:1002600000F096FF08B115F8010B8DF842009DF8DB
:100270004200682804D1287868280AD1622005E065
:100280006C2804BF28786C2803D171208DF84200B7
:100290006D1C14A8B8602978B1F1250027D01C384E
:1002A00000F08680001F022840F28280133800F0A0
:1002B000A98009387CD0801E00F03A81401E00F0F1
:1002C000E480401E022873D9001F00F0DE80401F2A
:1002D00043D0401E00F09680401E33D0C01E0BD08D
:1002E000801E00F08F80C01E00F08C8040E1F86816
:1002F000411CF960252144E19DF842006C283068DA
:1003000013D0011D316000687860BA6A002A02D5F6
:1003100000F04AFF07E0002100F062FF00281ABF4A
:100320007968401AB86A38612CE1011D31600268B1
:1003300002A9404600F0C9F9002840F123814FF09E
:10034000FF30BFE13068011D316000680021CDE958
:10035000020114A878607821E6E09DF84200622846
:1003600018D0682806D06A280BD06C2819D07128BC
:1003700007D016E03068011D3160796A006801809D
:1003800000E13268101D3060786AC1171268C2E956
:100390000001F7E03068011D3160796A0068017082
:1003A000F0E03068011D3160796A00680160E9E0C1
:1003B0003068C01D20F00700306000F10802326094
:1003C000D0E90023CDE90223002B04D5F868421CB4
:1003D000FA602D220DE0388E820704D5F868421CA1
:1003E000FA602B2205E0C00704D5F868421CFA60C9
:1003F00020220255F86814AA8018786002A800F03C
:100400005BFBBFE09DF842006C2808BF326811D04A
:10041000712808BF326802D06A2832680AD1D21D1A
:1004200022F00702326094460CF108023260DCE9E7
:10043000002303E0131D336012680023CDE902237B
:10044000682808BF92B207D0622808BFD2B203D092
:10045000742818BF7A2802D10023CDE9022397F827
:10046000300000075CD5DDE90223002B08BF002A1D
:1004700056D041F02000782852D1F8683022025539
:10048000401C421CFA6001554AE09DF84200622877
:100490000CD0682810D06A281AD06C2823D0712874
:1004A00016D074281FD07A280CD01CE03068021DAA
:1004B000326090F900201AE03068021D3260B0F915
:1004C000002014E03068021D3260026800230FE053
:1004D0003068C01D20F00700306000F10802326073
:1004E000D0E9002304E03068021D32600268D317AF
:1004F000CDE90223002B04DAF868421CFA602D22B1
:100500000DE0388E820704D5F868421CFA602B2271
:1005100005E0C00704D5F868421CFA6020220255A5
:10052000F86814AA8018786002A800F03AFA29E066
:100530009DF842006C2807D0F868411CF9603168CA
:100540000A1D326009681CE03068011D31600068D6
:10055000ADF804000020ADF806004FF0FF30B8629F
:1005600001AA02A9404600F0B0F800280AD5E6E644
:10057000F868421CFA602522025519B1F868421C3D
:10058000FA6001556D1CF86AF968401AB969401A99
:100590003969401AF969401A7969401A396AA0EB39
:1005A000010A97F83000400712D420208DF800008F
:1005B000BAF1010F0CDBD346012300AA02A9404681
:1005C00000F0A1FD00287FF4BAAEBBF1010BF3D11E
:1005D000FB6814AA02A9404600F095FD00287FF4AC
:1005E000AEAE30208DF80000D7F818B0BBF1010F87
:1005F0000BDB012300AA02A9404600F084FD00287D
:100600007FF49DAEBBF1010BF3D13B697A6802A97F
:10061000404600F078FD00287FF491AE30208DF840
:100620000000D7F81CB0BBF1010F0BDB012300AABF
:1006300002A9404600F067FD00287FF480AEBBF1C0
:10064000010BF3D17B6938697968421802A94046E9
:1006500000F059FD00287FF472AE30208DF80000C4
:10066000D7F820B0BBF1010F0BDB012300AA02A9D0
:10067000404600F048FD00287FF461AEBBF1010B5D
:10068000F3D197F8300040077FF549AD20208DF871
:100690000000BAF1010FFFF642AD012300AA02A942
:1006A000404600F030FD00287FF449AEBAF1010A5F
:1006B000F3D134E50000000000000000686A6C74AB
:1006C0007A4C000025B0BDE8F08F2DE9F04F95B0D1
:1006D00083460F461446D7F830A0BAF1000F48BF42
:1006E0006FF0004A00F0A8FD796B401801900FF6FA
:1006F0004422D2E90001CDE9020197F83800400711
:1007000002D40198412805D20DF110094020019032
:10071000002509E000F096FD5FEA0009F8D14FF0EE
:10072000FF303BE1AAEB080ABAF1010FC0F2A98041
:1007300002AA21880DF1010000F0DCFD5FEA00084B
:1007400000F1BF80208818B9B8F1010800F1B98024
:10075000C245C0F296807869019908EB0002914287
:1007600080F080807D634042396A401AB969401A3E
:10077000796A401AF969401AB96A451A97F8380037
:10078000400710D420208DF80000012D0BDB2E46F1
:10079000012300AA3946584600F0B5FC002840F075
:1007A0009080761EF4D17B694A463946584600F05F
:1007B000AAFC002840F0858030208DF800003E6AB9
:1007C000012E09DB012300AA3946584600F09BFCA4
:1007D000002876D1761EF5D1BB69FA6839465846AD
:1007E00000F091FC00286CD130208DF800007E6A6A
:1007F000012E09DB012300AA3946584600F083FC8C
:1008000000285ED1761EF5D1FB69B869F9684218F7
:100810003946584600F077FC002852D130208DF838
:100820000000BE6A012E09DB012300AA39465846A2
:1008300000F069FC002844D1761EF5D197F8380005
:1008400040070DD520208DF80000012D08DB012385
:1008500000AA3946584600F056FC90BB6D1EF6D1F2
:1008600000257D6142460DF101017869484400F0A0
:100870004FFD78694044786134F8020B00287FF41A
:1008800051AF786B7969401A396A401AB969401AD0
:10089000796A401AF969401AB96AA0EB010897F819
:1008A0003800400712D420208DF80000B8F1010F65
:1008B0000CDB4446012300AA3946584600F023FCCD
:1008C00010B14FF0FF3562E0641EF3D17B694A46F8
:1008D0003946584600F017FC0028F2D130208DF838
:1008E00000003C6A012C09DB012300AA3946584666
:1008F00000F009FC0028E4D1641EF5D1BB69FA6858
:100900003946584600F0FFFB0028DAD130208DF838
:1009100000007C6A012C09DB012300AA39465846F5
:1009200000F0F1FB0028CCD1641EF5D1FB69B86959
:10093000F96842183946584600F0E5FB0028C0D156
:1009400030208DF80000BC6A012C09DB012300AACD
:100950003946584600F0D7FB0028B2D1641EF5D1C5
:1009600097F83800400710D520208DF80000B8F126
:10097000010F0ADB012300AA3946584600F0C3FBE9
:1009800000289ED1B8F10108F4D17D617D6304A8EF
:1009900081451CBF484600F0F7FC284615B0BDE86D
:1009A000F08F2DE9FA4782B0064635696F2908BFF6
:1009B000082705D041F02000782814BF0A27102707
:1009C0003C24D6E90001804689469DF80820642A27
:1009D00018BF692A05D1002903DAD8F1000869EBAC
:1009E0004909B9F1000F08BFB8F1000F0CD1306B05
:1009F00050B9082F3BD196F83800000737D53B2473
:100A0000302085F83B0032E0A4F1010A5446FB1780
:100A1000404649463A4600F0F7FCCDE90089B84621
:100A2000A8FB0023DDE90089A8EB02023032D2B234
:100A30003A2A03D39DF80830513B9A180AF805204A
:100A400080465FEA010908BFB8F1000F03D0F068E3
:100A500061198842D8D3082F09D196F838000007C9
:100A600005D5605D302802D0641E30206055C4F189
:100A70003C00B0616119F160316B884207DA081AF5
:100A80003062308F4FF6EF710840308710E0002958
:100A90000ED596F8381001F01401102908D1716BA9
:100AA0007269891A326A891A081A0128A8BF306245
:100AB00004B0BDE8F08700002DE9F24F8EB0044687
:100AC00004AED4E90001CDE902019DF8380040F000
:100AD00020008DF8000061280BD0206B002848BF53
:100AE000062005D404BF9DF80000672801D101202D
:100AF00020636168C1F30A5040F2FF7398421ED12F
:100B0000080304BF206800280AD10320A0619DF8D3
:100B100038006138C0B21A2838D30FF22C6109E0CE
:100B20000320A0619DF838006138C0B21A282AD38A
:100B30000FF20C610322E06800F0EAFBB9E1012842
:100B400017DA204600F0D7FC012812DB002700202E
:100B50009DF80010612920D1E168302201F8012BB5
:100B60004A1CE2609DF83820612A0CBF7822582286
:100B70000FE040F2FE31626861F31E526260471A74
:100B80004FF0FF30E4E70FF2B451D3E70FF2B45166
:100B9000D0E70A706169891C616110B900250027DE
:100BA0007EE19DF80000612840F09780206B0028CE
:100BB0004CBF2125451C2DB26E1CD4E90089DDE90E
:100BC00002010022002300F0B7FC3ABF89F0004088
:100BD000CDE90280CDE902893F1F8DF810200DF18B
:100BE0001108012E35DBDDE902010022002300F0AF
:100BF000BBFC2ED21C2102A800F0CEFCDDE90201D4
:100C000000F050FD8146F61F012E09DB00F076FD55
:100C100002460B46DDE9020100F088FDCDE9020144
:100C200008F20700072105E009F00F0200F8012D86
:100C30004FEA2919B9F1010F01DB491EF4D5491E0C
:100C40005CBF002200F8012DF9D500F20708012E43
:100C5000C9DA0DF11100A8EB00010DF11106A9424E
:100C6000B8BF0D462DB2002D30D42846884206DA92
:100C700004A941184978082928BF0F2100D2002172
:100C800004AA821800E06D1E401E12F801398B4242
:100C9000F9D00F2904D104A941184A78521C4A708E
:100CA000002802D504AE6D1C3F1D2DB2681E0DD468
:100CB00081190A783032D2B23A2A03D39DF83830FB
:100CC0003A3B9A1801F80129401EF2D5206B002802
:100CD00040F1E680681E2063E2E0DDE902010022C7
:100CE000002300F029FC3CBF81F00041CDE9020166
:100CF0003FB247F297507843474990FBF1F73FB234
:100D0000C7F107069246DFF814B1012E19DBDDE9C1
:100D10000289F00707D552465B464046494600F037
:100D2000C5FD8046894676105046594652465B4678
:100D300000F0BCFD82468B46002EEAD1CDE9028947
:100D400021E076429046DFF8D89012E0F00707D510
:100D500052465B464046494600F0A8FD804689461B
:100D600076105046594652465B4600F09FFD82463B
:100D70008B46002EEAD1DDE9020142464B4600F0E7
:100D800067FECDE902019DF8000066280CBF07F15F
:100D90000A000620216B4518142DA8BF132530200A
:100DA0008DF810000DF11106DFF87890012D3BDB76
:100DB000DDE9020100F08CFC06F1080104220A269C
:100DC000B0FBF6F303EB830EA0EB4E00303001F8DE
:100DD000010DB3FBF6F000EB8006A3EB46033033C6
:100DE00001F8013D521EEAD101F10806083D012D2E
:100DF000DCDBDDE9020100F06BFC00F089FC02465F
:100E00000B46DDE9020100F091FC00224B4600F0A8
:100E10004DFDCDE90201CBE7A08601000000244092
:100E20000000F03F84D797410DF11100301A0DF109
:100E3000110602E0401E7F1E761C31783029F9D061
:100E40009DF80010662902D13FB2791C03E06529A4
:100E50000CBF01210021226B8D182DB2A842B8BF12
:100E600005462DB2002D1BD42946814204DA885D47
:100E7000352828BF392000D230208A19521E00E0C0
:100E80006D1E491E12F801398342F9D0392802D16A
:100E9000885D401C8855002902D5761E6D1C7F1C7C
:100EA0003FB200972BB232469DF83810204600F032
:100EB00003F80FB0BDE8F08F2DE9F04786B0064685
:100EC0008A4690461C4600F004FF406A90F8009065
:100ED000376B012C02DA01240FF270284AF020004F
:100EE000BDF93850662808BF6D1C13D0672876D12D
:100EF0006FF00300854278DBBD4276DA6D1C96F810
:100F00003800000702D4BC42B8BF27462DB27F1B71
:100F100048BF0027F068B1692DB2012D21DA4A1CC3
:100F200030230B54012F03DA96F83810090702D545
:100F300002F80090521CB261EF42B8BF7D422DB260
:100F400069427162EF19A742B8BF3C4624B2F4610E
:100F500022464146B369181800F0DAF9381BB0622E
:100F6000BAE00818AC4216DA2246414600F0D0F941
:100F7000B1696118B161281B7062012F03DA96F81C
:100F80003800000705D5F06801F80090F069401CB2
:100F9000F061B762A0E02A46414600F0B9F9B069B5
:100FA0002818641B012F03DA96F83810090703D5B7
:100FB000F16800F80190401CB06124B2A742B8BFAC
:100FC0003C4624B2224605EB0801F368C01800F045
:100FD0009FF9B0692018B061381B70627CE0BAF1EB
:100FE000610F14D14FF0700A16E0BC4204DA96F893
:100FF0003810090758BF27467F1E48BF0027BAF19F
:10100000670F14BF4FF0450A4FF0650A04E0BAF1CC
:10101000410F08BF4FF0500AB1694A1CF06818F838
:10102000013B0B54012F05DA96F83810090758BF19
:10103000B26115D502F80090531CB361012F0FDB8C
:10104000641E24B2A742B8BF3C4624B222464146A1
:10105000181800F05DF9B0692018B061381B706293
:10106000B069F16800EB010808F801AB002D03D46A
:101070002B2008F8010B03E02D2008F8010B6D422E
:10108000002402AF09E00A22294600A800F03AFE37
:10109000019807F8010B009D641C2DB2012DF2DAB6
:1010A000022C06DA4AF02000652804BF302008F838
:1010B000010B4CB9302008F8010B07E0641E02A8B0
:1010C000205C303008F8010B012CF7DAB069F168C8
:1010D0004018A8EB0000F06196F8380000F014000A
:1010E00010280DD17069B1690818716A0818F16982
:1010F0000818B16A0818716B8842BCBF081A3062C0
:1011000006B0BDE8F087F8B504460D4616461F4602
:10111000002077B116F8011BA868A047A86030B17D
:10112000E86A401CE86200207F1EF3D1F2BD4FF058
:10113000FF30F2BD00000000000000006E616E0094
:101140004E414E00696E6600494E46003000F8B5CB
:1011500004460D4616461F4600F0DCFD3B4632466F
:101160002946204601B0BDE8F04000F0EABD50F845
:10117000041B61B150F8042BD30744BFA9F101034C
:101180009A18002342F8043B091FFAD1EFE7704791
:101190000278C9B28A421AB11CBF10F8012FF9E7D0
:1011A00018BF00207047000000F10103810704D040
:1011B00010F8011B89B18107FAD10268B2F101313F
:1011C000914311F0803F04BF50F8042FF6E710F868
:1011D000011B11B110F8011BFBE7C01A704700009A
:1011E000C9B2830706D0521E22D310F8013B9942A0
:1011F000F7D11FE0083A13D302F1040241EA0121BA
:1012000041EA014150F8043B121F21BF4B40A3F1BA
:10121000013C2CEA030C1CF0803FF3D0C9B2001F44
:10122000083210F8013B521E28BF91EA030FF8D88C
:1012300018BF0120401E704780B500F06BFD0120F3
:1012400002BD000070B5054605F10F00C408E400BA
:10125000C046C046A54232D2082C04D2082402E07F
:10126000083000F091F82248026811000CD1011DED
:101270000A6802B31368A34238BF111DF8D310E007
:101280001D68A5420DD2191D0B68002BF8D11268FC
:10129000011D00E0191D0B6893420CD01D68A5428A
:1012A000F8D361B10D682A68A2F10803A3420AD2FB
:1012B0006A680A600FE000F067FD0028D0D1C046E0
:1012C000C046002070BD63190B606E685E60121B23
:1012D0000B681A602C60096800291DBF4A68002A43
:1012E000091D00210160C046C04605F1080070BD1F
:1012F000D403002070B504460D46164600F00AFDE2
:10130000324629462046BDE8704000F00DBD000081
:1013100062B38B0708D0521E11F8013B00F8013B65
:1013200000F024808B07F6D1830740F0208000BFB7
:10133000103A07D330B4B1E83810103AA0E83810AA
:10134000F9D230BC530724BFB1E80810A0E8081058
:1013500044BF51F8043B40F8043BD20724BF31F8A6
:10136000022B20F8022B44BF0B7803707047083A19
:1013700007D3B1E80810083A40F8043B40F804CB22
:10138000F7D25307E4E7000000B9704710B5A0F1A9
:1013900008042068082833D310F0070F30D1C04666
:1013A000C0461848416809B18C4203D2616044606C
:1013B00017E019464B680BB1A342FAD30A685318D9
:1013C0009C421BD3A34204D123689A180A600C469E
:1013D00007E04A681AB123681B199A420ED362606B
:1013E0004C60616851B1226813198B4206D1002309
:1013F000036008688018206048686060C046C04686
:1014000010BD0000D40300201B4213D1094236D185
:101410002AB18446B0FBF2F002FB10C2704700F024
:10142000C7BCFCD30022002370470B000200002140
:1014300000207047904271EB030CF6D370B5B1FAFF
:1014400081F4B3FA83F52C1BA340C4F1200532FAD2
:1014500005F63343A2405FF00046E64002E05B0839
:101460005FEA3202841A71EB030524BF2046294645
:101470007641F4D302000B003000002170BD012A38
:10148000CFD970B5140C20D0B1FA81F4B2FA82F53C
:10149000C4F120046419B4F12006D6D3B2405FF041
:1014A0000044F440002502E052085FEA3303C61A04
:1014B00071EB020E24BF3046714664416D41F3D397
:1014C00002000B002000290070BD0C46B1FBF2F1B8
:1014D00002FB11452D0445EA1045B5FBF2F402FB71
:1014E000145580B240EA0545B5FBF2F002FB1052FC
:1014F00040EA044070BD30B4436803F0004201216B
:101500001B031B0B436004BF0368002B08D10DE0D5
:101510000368DD0F45EA440444605B000360491E34
:101520004468E302F4D523031B0B436043681A436A
:101530004260084630BC70474FF4001C1CEB410F62
:1015400094BF1CEB430F09E041EA030C50EA4C0C3A
:1015500052EA0C0C03D2994208BF9042704714BF64
:101560008B428242704700004FF4001C1CEB410F7D
:1015700094BF1CEB430F09E041EA030C50EA4C0C0A
:1015800052EA0C0C03D28B4208BF8242704714BF50
:10159000994290427047000070B504460D4660685D
:1015A000C0F30A5040F2FF72904207D16068000316
:1015B00004BF2068002817D0022070BD20B9204643
:1015C000FFF799FF012867DA012D0FDB40F2FF7169
:1015D000091A8D420AD36068002847BF00202F49AE
:1015E00000202F49C4E90001012070BD4142A942F9
:1015F000616806DA6FF31E51401941EA00506060DD
:1016000041E001F000410122636862F31F5363600F
:10161000401E451905F13500352803D361600020CF
:10162000206070BD002215F11F0F04DA20352268FA
:10163000236000206060684213D0521E9241D24362
:10164000C0F1200325689D4055EAD2722568C54047
:10165000666806FA03F32B432360636823FA00F0FD
:101660006060606808436060B2F1004F03D80DD13C
:101670002078C0070AD52068401C2060206828B95F
:101680006068401C60604FF0FF3070BD6068884249
:1016900004BF20680028F6D1002070BD0000F0FFD4
:1016A0000000F07FF446400D40EAC120490006D218
:1016B00000F014F8004248BF6FF00040604700F0AF
:1016C0000DF84FF0004188428CBF08464042604709
:1016D000400D40EAC120490080F00D8040F00040FC
:1016E000490DA1F58061491C05D4D1F11F0154BFFA
:1016F000C840C01770474FF000007047010040F12C
:101700000980F446404200F005F851F0004160477E
:10171000010000BF09D0B0FA80F18840C91CC1F5B2
:101720008461090501EBD0214005704770B44FF08A
:10173000004591EA030F44BF6B4000F03BBB00BF84
:10174000841A71EB030604D26E40001BB1411219DA
:1017500073414FF4001C1CEB410F34BF7CEB43067C
:1017600084E00C0DA4EB1356362E7DDC012E43DCF9
:1017700045EAC32343EA525312BFD20292025B08E6
:10178000240545EAC12141EA5051D2EBC0209941DC
:1017900025D407D1B0FA80F610FA06F164D0002003
:1017A000203608E0B1FA81F6B140C6F1200220FAF5
:1017B00002F21143B0404FEAF474B4EB465434F0F3
:1017C00001064FEA74040AD8D6F50016760D04F027
:1017D0000044F04061FA06F25040F1404840C00A2F
:1017E00040EA415021F0004128BF5FEA500550F126
:1017F000000044EBD12137E045EAC323DB0A45EA88
:10180000C121C90AB6F120050EDD42EA0242120CDE
:10181000C5F1200603FA06F6EB4042EA06056D42E2
:10182000984161F100010DE062FA06F5F240554081
:1018300063FA06FC82EA0C02F3405A406D42904182
:1018400061EB030111F4801F05D1641E620502D013
:101850006D004041494121F48011430875F1004376
:1018600050F1000041EB045170BC70471CEB410F7C
:1018700015D223F0004352EA43060BD04FEA4C0C3A
:10188000BCEB410F04D80C0D661E342EB7DDEBE720
:10189000801A994150EA410608BF0021E4E708BFD9
:1018A0001CEB430F28BF6FF00001DDE7B0B581EA04
:1018B000030C0CF0004C40F2FF7515EA11541DBFEB
:1018C00015EA1357AC42AF4239E0E41923EA455315
:1018D00043F48013C90241F0004141EA505EC7025F
:1018E0001100A7FB020200284FF00000EEFB0120D0
:1018F0004FF00001E3FB072118BF42F0010240183E
:1019000000214941E3FB0E01A4F580640F0302D2DC
:1019100052004041494154F101046CDD470872F125
:10192000004250F1000051EB0451A1F580115CBF61
:1019300041EA0C01B0BD4CEA05510020B0BD05EAFA
:101940001357AC4214BFAF4241E050EA410E1CBFF6
:1019500052EA430E02E061460020B0BD24423C44FE
:101960001BD15FEA070EF6D0090302BF0146002033
:10197000AEF1140EB1FA81F7AEEB070401FA07FEDF
:101980000C37C7F1200100FA07F7C8404EEA000EF5
:1019900023EA455343F48013A2E733F00043B3FA3C
:1019A00083F704BFB2FA82FE77440B3FE41BB7F122
:1019B000200E2FBF02FA0EF3BB40C7F1200E22FA11
:1019C0000EFE38BF43EA0E03BA40641C82E750EAB9
:1019D000410E14BF52EA430E6FF000014FF400179E
:1019E00017EB430F8ABF194617EB410FB5E74CEAD7
:1019F00005510020B0BDD4F10104B4F120070FDA85
:101A0000C4F12007520828BF42F0010210FA07F57E
:101A100001FA07F7E1BF2A43E0403843E1400FE015
:101A2000352C98DCC7F1200452EA400220FA07F274
:101A300018BF42F0010231FA07F0A1400A43002129
:101A400072F1004250F1000051EB0C01B0BD0000FA
:101A5000F0B540F2FF7581EA030C0CF0004C15EA7A
:101A600011541DBF15EA1357AC42AF42E5E0BC412B
:101A7000C1F31301C3F31303801A994143F4801394
:101A800004D2641E4000494180185941C90241EA0C
:101A90005051B1FBF3F603FB1611A2FB0675D7EB11
:101AA000C020A94102D2761E80185941C90241EADC
:101AB0005051B1FBF3FE03FB1E11A2FB0E75D7EBD9
:101AC000C020A94103D2AEF1010E8018594189020C
:101AD00041EA9051760546EA8E2EB1FBF3F603FB00
:101AE0001611A2FB0675D7EB8020A94102D2761E03
:101AF00080185941C90241EA50514EEA060EB1FB25
:101B0000F3F603FB1611A2FB0675D7EBC020A94123
:101B100002D2761E80185941C90241EA5051B1FBE8
:101B2000F3F703FB1711A2FB0735D3EBC020A94144
:101B300067F100070CBF004247F0010766F3D527A5
:101B40004FEA1E31B80814F5806412DDBD0775F147
:101B5000004250EB0E5051EB045111F5801F5CBF59
:101B600041EA0C01F0BD4CF07F6141F0E041002002
:101B7000F0BDBD076D0840EA0E5041F48011D4F16C
:101B80000104B4F120060ADAC4F120060200E040A4
:101B900001FA06F3E1401843B24015430EE0342C3D
:101BA00013DCC6F1200445EA40056D0820FA06F270
:101BB000154321FA06F0A1400D43002175F10042C2
:101BC00050F1000051EB0C01F0BD00205FEA0C0168
:101BD000F0BDCFB992185B41B3FA83F704BFB2FAF4
:101BE00082F6BF190B3FB7F120062FBF02FA06F3AA
:101BF000BB40C7F1200622FA06F638BF3343BA408D
:101C00001CB1E419641E33E77F4231F00041B1FAA0
:101C100081F404BFB0FA80F6A4190B3CB4F120069D
:101C20002FBF00FA06F1A140C4F1200620FA06F603
:101C300038BF3143A0403C1B1AE7AC421ABF05EA4B
:101C40001357AF4212E050EA41061CBF52EA430666
:101C5000BFE750EA4107304661461CBF41EA0551E3
:101C6000F0BD52EA430C08BFC143F0BD00204FF461
:101C7000001616EB410F98BF16EB430F08BF16EB8B
:101C8000410F24BFC14305E016EB430F0CBF614673
:101C90004CEA0551F0BD000080B5134800F0F4F89F
:101CA0000FF24801016041608160C16001614161E2
:101CB00081610FF23C0242628162C1620163416351
:101CC0000FF2300282630FF23402C2630164416496
:101CD00001BD10B5044800F0D7F80446206808B9E3
:101CE000FFF7DAFF204610BD0000002000000000D2
:101CF0002E00000066616C736500000074727565EB
:101D00000000000091FBF2F303FB1211C0E9003167
:101D10007047000080B5DFF80C0000F0B5F880696E
:101D200002BD00004802002030B430B90FF2480074
:101D3000D0E90045C2E900451BE00170012030BC3C
:101D4000704730B431B90FF23800D0E90045C3E92B
:101D500000450EE01AB96FF0010030BC704708B1C1
:101D60000A7802800978481E8041C043C00F30BC09
:101D70007047002030BC70470000000000000000E9
:101D800000000000000000000649086808B10020BB
:101D90007047054808600549C908C900091A01606B
:101DA000704700BFE0030020F8070020F80900207A
:101DB00070470000841A71EB030603D2001BB14187
:101DC000121973414FF4001C1CEB410F34BF7CEB24
:101DD000430443E00C0DA4EB1356352E50DC45EACA
:101DE000C323DB0A45EAC121C912B6F120050DDD86
:101DF00063FA05F6EB4086EA0305124218BF45F088
:101E00000105C01851F100010CD213E062FA06F589
:101E1000F2405540F3415A40B340F3405A408018D5
:101E2000594107D349085FEA30005FEA350528BF0A
:101E300045F0010501F58011420875F1004250F1AD
:101E4000000041EB045170BC4FF4001C1CEB410F2F
:101E500038BF70470020090D090570471CEB410F82
:101E600010D252EA43060BD0BCEB410F05D80C0D43
:101E7000AB43661E342EB5DD02E0AB4380185941FA
:101E800070BC704770BC7047704700004109DFF8B4
:101E90000028012300F01F0003FA00F042F821009F
:101EA000704780B500F0A8FC00F080F900F032F92E
:101EB00000F0AAF900F030FD00F02CFE00F0DEF991
:101EC00000F062FA00F0C5FA00F07ABB80B50FF6B8
:101ED000780000F047FABDE8014000F098BD00F03E
:101EE000C7F84FF4006000F088FE102000F09CFE60
:101EF0000028FAD1FFF7D5FFFFF7E8FFDFF8944796
:101F00000FF688050FF660060FF64C070FF650081F
:101F1000DFF88497DFF884A7DFF884B742E04AF659
:101F2000CD30AAF8000099F8000040B10A2000F076
:101F3000C8FA0B2000F0C5FA002089F8000099F8D3
:101F4000010010B1002089F8010099F8020010B1D9
:101F5000002089F80200207848B132220021204672
:101F600000F0BAFE002089F8030089F8040099F80F
:101F7000080050B13222002109F1080000F0ACFE47
:101F8000002089F8050089F806009BF80000052864
:101F900008D100208BF80000ABF80200CBF8040059
:101FA000ABF8080000F002FEABF8040000F02FFDD3
:101FB000BBF802100843ABF80200BBF8041000297C
:101FC00008BF00281BD09BF8000040F001008BF8F0
:101FD0000000AAF80010BBF80200AAF80000BBF845
:101FE0000400C0B200F0B2F9BBF80200C0B200F0C9
:101FF000ADF99BF8000040F004008BF80000B9F840
:102000003C00012802D0032805D00AE0384600F041
:10201000A9F9032003E0404600F0A4F90120A9F843
:102020003E00DFF8800600F01BF999F80300312824
:102030000BD009D333280ED00AD3352812D00DD3B4
:1020400037283FF46CAF11D36DE700F0F7F86AE77B
:1020500000F0BDF867E700F0F8F864E7284600F004
:1020600081F960E7012089F800005FE73046F6E774
:1020700080B5012000F064FE212000F0A9FF0028B7
:10208000FAD0012000F079FE4FF4404000F03AFE13
:1020900001213F2000F027FF01214FF0104000F008
:1020A0005CFF012140F2012000F03BFF012000F025
:1020B00095FD012000F00AFF002000F007FF01203D
:1020C00000F04BFE492000F083FF0028FAD04FF4C7
:1020D000803000F0BBFE012000F0EBFE002000F09D
:1020E00005FE312000F074FF00B1FEE701BD80B5B0
:1020F000DFF8B40500F0FCFFDFF8B00500F0F8FFF2
:10210000DFF8AC0500F0F4FFDFF8A805BDE80240F9
:1021100000F0EEBF00B585B0FFF7E9FF2120019088
:1021200000208DF8080002208DF80B0001208DF8AA
:10213000090001A9DFF8700501F027F8002100204F
:1021400001F0F8F82120039000208DF810000820FD
:102150008DF8110001208DF8120003A801F070F92C
:1021600017208DF800000F208DF801008DF8020077
:1021700001208DF8030000A801F00AFA0620FFF7FD
:1021800085FE1720FFF782FEC020019001208DF808
:1021900008000020ADF80A0001208DF8090001A90F
:1021A000DFF8080500F0F1FF05B000BDDFF80C0511
:1021B000016841F007010160816841F0825141F4FA
:1021C00009118160416841F4A04141607047DFF826
:1021D000F004016841F0010101604FF08040DFF838
:1021E000E41409684FF47A72B1FBF2F1491E0185DB
:1021F00064218185818941F001018181018841F05B
:10220000010101801C2041E6DFF8B004016841F0C3
:1022100001010160416841F001014160DFF8A8045B
:10222000416841F001014160016841F00101016034
:10223000C16841F00101C160062027E680B547A0D2
:1022400000F090F80FF2385007E080B501F022FA64
:1022500043A000F087F8DFF87404BDE8024081E095
:1022600082B0002104E00199491C01910099491CA8
:10227000009100998142F6DB02B07047DFF83C0420
:10228000016841F001010160DFF81C140A6822F4C2
:1022900040220A600A6842F400220A608A884FF6E7
:1022A000FF531A408A80CA6822F44022CA608A68B2
:1022B00022F440228A608A6842F480228A604A6A54
:1022C00022F0F0024A624A6A42F070024A620A68E8
:1022D00022F440120A600A6842F400120A608A88F6
:1022E0004FF6FF331A408A80CA6822F44012CA604F
:1022F0008A6822F440128A608A6842F480128A60F6
:102300004A6A22F470624A624A6A42F4E0624A62AD
:10231000416841F480414160DFF8B403DFF8A41361
:10232000096801F596514FF41652B1FBF2F10180A4
:10233000818841F020018180818841F400518180B1
:10234000818841F00C01818025209FE5DFF884130E
:102350000A885206FCD5888070470000312E300074
:102360004750530038B50446002502E0FFF7EEFF62
:102370006D1CEDB2285D0028F8D10D20FFF7E6FFB7
:102380000A20BDE83240E1E7DFF83003016841F0A0
:1023900003010160C4490A6842F0207242F42062DD
:1023A0000A608A884EF2CF731A408A804A6A42F4E1
:1023B000AA224A620A6A42F4AA020A62BB490A686D
:1023C00042F02A420A608A8841F2FF731A408A80EA
:1023D0004A6AC14B1A434A62416841F480514160E4
:1023E000BE490A8842F018020A800A8842F4006254
:1023F0000A800A8842F400720A800A8842F48072D5
:102400000A808A8842F004028A800A8842F0040224
:102410000A808A8842F040028A80816841F48041C3
:102420008160AF48018841F400610180018841F476
:102430000071018001884FF6FB7211400180818894
:1024400041F040018180018841F040010180242059
:102450001CE59948C16941F00101C16192490A68CE
:1024600042F030020A60CA6822F03002CA600A688C
:1024700042F0C0020A60CA6822F0C002CA60016865
:1024800041F00101016001688907FCD5016A41F44E
:10249000007101629548416841F0007141608168B6
:1024A00021F400618160816841F00101816001686F
:1024B0004906FCD5416841F0200141601220FFF738
:1024C000E5BC8B4900228A63032818BF04280BD07F
:1024D0000A2805D00B2803D1886B40F00B0002E0DE
:1024E000886B40F00A008863086840F0804008600C
:1024F0007047804801884FF6FE72114001807E4887
:1025000001784A1C02707D48C90704D5418841F012
:10251000800141807047018841F08001018070474F
:1025200010B5774C0121204601F024F928B1012192
:102530002046BDE8104001F05FB910BD80B5012014
:1025400080F310886F48007838B901F0CFF96E48F1
:10255000008840006449088002E06C480121017055
:1025600001202BE06A48016841F0020101606948DE
:1025700005E06748016841F00401016066480121F7
:10258000017070476248016841F0080101606348CA
:10259000012101700FF21020E4E65D48016841F06E
:1025A000100101605E48EAE780B5012080F31088E1
:1025B0003B480121017080214180202000F09BFFD9
:1025C000002080F3108801BD5148016841F480610A
:1025D00001605448D3E710B53E480188890608D504
:1025E0002D498288CA700A792A4BCC78D454521C5F
:1025F0000A71018841F040010180018841F0200109
:10260000018010BD80B520A0FFF7ACFE35480188E1
:10261000C90709D520498088487188794A794318C3
:102620001A728A87401C88713F48008801BD80B5B6
:102630000FF28810FFF796FE3B480188C90708D5BE
:10264000154982888A87898F384A11801449898878
:102650008180008801BD10B524480168890709D52B
:10266000334C806D207009A0FFF77CFE2078BDE818
:1026700010406BE610BD2F48016811B10168491E7A
:102680000160704700000000530000004144430017
:1026900000E100E054030020500000200C3800400E
:1026A000C8030020A0860100000002400004024090
:1026B00000080240000C0240003802401C38024072
:1026C00024380240740100200004014088030020E7
:1026D00008380140003801400000555500300140E5
:1026E00000380040083001400C3001400024014017
:1026F0000824014010000040F203002018040240AA
:1027000000040040E9030020BC010020EA0300208F
:1027100014040140EB030020EC030020ED03002033
:10272000EE030020EF030020083800400438014089
:10273000F0030020DC0300200A4601460FF2880067
:1027400001F002F9FEE700003D3D3D53544D5F4767
:102750004F213D3D3D0A00005350493D30310000BE
:102760005350493D303300003D3D3D48454C4C4FB2
:102770005F46524F4D5F5553415254213D3D3D0000
:1027800030332E30392E3133000000004375727221
:10279000656E745F6D6F6E69746F725F6765745F8D
:1027A0006461746100000000454E435F62746E5FB7
:1027B00070726573736564210000000053504932E4
:1027C0005F4952510000000057726F6E67207061C0
:1027D00072616D65746572732076616C75653A20FF
:1027E00066696C65202573206F6E206C696E6520AC
:1027F00025640D0A000000001FB54148016841F43E
:102800008071016081683F4A1140816001683E4AE1
:1028100011400160016821F480210160816821F488
:102820007D0181600021C16003910291016841F046
:1028300001010160016801F0020102910399491C44
:102840000391029919B90399B1F5A06FF2D101680A
:10285000490801F001010291029901292AD12B496D
:102860000A6842F004020A600A6842F002020A6042
:102870000A6842F001020A60416A41F080514162F7
:1028800023494FF400620A604A68D206FCD481688A
:1028900081608168816081688160816889088900C0
:1028A0008160816841F001018160816801F00C0163
:1028B0000429FAD10121012000F015FB102000901D
:1028C00003208DF8050000208DF8070003208DF807
:1028D0000400104C00A9204600F057FC2020009076
:1028E00001208DF804000020ADF8060003208DF8CB
:1028F000050000A9204600F048FC202020831FBDD1
:10290000003802400CC0FF88FEFFFEEE003C024093
:1029100000700040000002406A48016841F0040174
:102920000160416841F00101416067480168890820
:1029300089000160C16889088900C160C16841F0EF
:102940000101C160016821F00C010160C16821F042
:102950000C01C160C16841F00401C160016821F04F
:1029600030010160C16821F03001C160C16841F0EF
:102970001001C160016821F0C0010160C16821F04F
:10298000C001C160C16841F04001C160016821F42B
:1029900040710160C16821F44071C160C16841F4B7
:1029A0008071C160016821F440610160C16821F457
:1029B0004061C160C16841F48061C160016821F477
:1029C00040510160016841F480510160818841F00B
:1029D00040018180C16821F44051C160816841F4A7
:1029E00040518160016821F440410160016841F477
:1029F00080410160818841F080018180C16821F4BB
:102A00004041C160816841F44041816070470020CD
:102A10002E490A8942F040020A810A8942F0800266
:102A20000A810A8942F040020A814A8942F0800202
:102A30004A810A88D24302F03F02012A0AD0022AC0
:102A40000AD0042A0AD0082A0AD0102A0AD0202A3A
:102A50000AD00BE001202CE002202AE0032028E02D
:102A6000042026E0052024E0062022E00A8942F026
:102A700080020A814A8942F040024A810A88D24390
:102A800002F03F02012A0BD0022A0BD0042A0BD0FD
:102A9000082A0BD0102A0BD0202A08BF0C2008E0EF
:102AA000072006E0082004E0092002E00A2000E0F8
:102AB0000B200A8942F040020A810A8942F0800212
:102AC0000A8170471C38024000080240100802408A
:102AD0003D48016841F001010160816841F0020157
:102AE00081603A48018C41F02201018440F20111D9
:102AF000018302210185FF218185018941F00301C4
:102B00000181018941F040010181018841F0010109
:102B1000018070472E48016821F440610160C1685E
:102B200021F44061C160016821F4405101600168F5
:102B300041F40051016081884FF6BF7211408180DD
:102B4000C16821F44051C160C16841F40051C160C5
:102B5000816841F440518160016A21F07061016235
:102B6000016A41F000710162016821F44041016095
:102B7000016841F40041016081884FF67F72114085
:102B80008180C16821F44041C160C16841F40041C5
:102B9000C160816841F440418160016A090109090D
:102BA0000162016A41F00051016291E70948008821
:102BB000C00509490A78000E904201D0087070479C
:102BC00000207047000000001C3802400004004054
:102BD0000000024024040040E803002010B5040077
:102BE00018BF012C02D0862100F003F81B480460B6
:102BF00010BD0FF27400FFF79FBD10B50446B4F589
:102C0000006F1CBFB4F5805FB4F5C05F03D04FF414
:102C1000CA71FFF7EEFF1248016821F4C051214349
:102C200021F00C01016010BD38B504460025012CCF
:102C300018BF022C0BD0042C18BF082C07D0102C66
:102C400018BF202C03D040F20F31FFF7D2FF054808
:102C50000068204218BF0125284632BD20000E42E0
:102C60000070004004700040433A5C557365727315
:102C70005C6162635C44726F70626F785C574F5244
:102C80004B5C28212953544D33324C5F7072657070
:102C90006172696E675F666F725F326D31315C4C75
:102CA00069627261726965735C53544D33324C31A1
:102CB00078785F5374645065726970685F447269B4
:102CC0007665725C7372635C73746D33326C3178E9
:102CD000785F7077722E630010B5044610460A467E
:102CE0000146204600F042FE204610BD10B504000B
:102CF0001CBF012C052C02D0F42100F053F8DFF8A2
:102D0000300336E010B5040018BFB4F5005F11D0F1
:102D1000B4F5804F18BFB4F5C04F0BD0B4F5004FD9
:102D20001CBFB4F5204FB4F5404F03D04FF4A6714B
:102D300000F038F8DFF8FC02016821F4604135E06A
:102D400010B5040018BF012C03D04FF4D27100F06D
:102D500029F8DFF8E402046010BD10B504001CBFC0
:102D6000012C052C03D040F2BD1100F01BF8DFF858
:102D7000CC0200210170047010BD10B5040018BF12
:102D8000012C07D0022C18BF032C03D040F2B7212E
:102D900000F008F8DFF8A8020168890854EA810108
:102DA000016010BD0FF2D820FFF7C6BC21430160BF
:102DB00010BDF0B5DFF87C124E680125DFF88432D3
:102DC000DFF88442DFF8842216F00C0619D0042EB6
:102DD00004D0082E1DD00C2E02D012E0234618E09D
:102DE0004D684E68C5F38345AD5CC6F38156761CCD
:102DF0004F68FF0354BF04FB05F36B43B3FBF6F3CB
:102E000007E00B685B0B03F007035B1C05FA03F399
:102E1000DB0303604B680468C3F303139B181B7B3D
:102E200024FA03F343604B684468C3F302239B18FE
:102E30001B7B24FA03F3836049684368C1F3C22112
:102E40008918097B23FA01F1C160F0BD10B5044671
:102E5000B4F5803F18BFB4F5003F12D0B4F5403F41
:102E60001CBFDFF8EC0184420BD0DFF8E80184429C
:102E70001CBFDFF8E401844203D040F2E131FFF7E8
:102E800091FFDFF8A80104F44031B1F5403F06D1CD
:102E9000016821F0C04104F0C04211430160416B60
:102EA00021F440314163416B04F4403211434163EA
:102EB00010BD10B5040018BF012C03D040F203412F
:102EC000FFF770FFDFF89401046010BD10B5040037
:102ED00018BF012C03D040F21341FFF763FFDFF866
:102EE0008001046010BDF8B504460D460FF290163F
:102EF000DFF87001044200D11CB940F22F4100F00C
:102F000064F8DFF8647145B1012D03D04FF4866198
:102F100000F05BF83868204301E03868A04338606F
:102F2000F1BDF8B504460D460FF254164F48044261
:102F300000D11CB940F2514100F047F84C4F45B167
:102F4000012D03D040F2524100F03FF83868204391
:102F500001E03868A0433860F1BDF8B504460D467D
:102F60000FF21C164348044200D11CB940F27C41C8
:102F700000F02BF8404F45B1012D03D040F27D41C8
:102F800000F023F83868204301E03868A043386037
:102F9000F1BDF8B504460D460FF2E406314804428F
:102FA00000D11CB940F29D4100F00FF8334F45B1FC
:102FB000012D03D040F29E4100F007F8386820430D
:102FC00001E03868A0433860F1BD3046FFF7B4BB7C
:102FD00038B504460025212C18BF312C17D0292CD8
:102FE00018BF392C13D0492C18BF412C0FD05A2CA4
:102FF00018BF5B2C0BD05C2C18BF5D2C07D05E2C4F
:1030000018BF5F2C03D040F2B651FFF7CBFE074844
:10301000610901290CBF0068406B012104F01F0207
:103020009140084218BF0125284632BD00380240B1
:10303000023802400438024000004742353802405E
:103040000838024000127A000024F40098010020A1
:10305000000003200000034000000360D806474240
:10306000DC064742C06FFFFE1C380240E2ADFFFFA6
:1030700020380240C8B5194F2438024010380240A9
:10308000433A5C55736572735C6162635C44726F52
:1030900070626F785C574F524B5C28212953544D16
:1030A00033324C5F707265706172696E675F666F14
:1030B000725F326D31315C4C696272617269657345
:1030C0005C53544D33324C3178785F53746450659F
:1030D000726970685F4472697665725C7372635C72
:1030E00073746D33326C3178785F7263632E630072
:1030F00080B5DFF8B41188421AD0DFF8B0118842E9
:103100001DD0DFF8AC11884220D0DFF8A81188422A
:1031100023D0DFF8A411884226D0DFF8A01188421E
:1031200029D07C210FF29810BDE80440FFF704BBC2
:1031300001210120FFF72DFF0021012021E00121C5
:103140000220FFF726FF002102201AE001210420BF
:10315000FFF71FFF0021042013E001210820FFF7E3
:1031600018FF002108200CE001211020FFF711FFBB
:103170000021102005E001212020FFF70AFF002197
:103180002020BDE80440FFF704BF2DE9F0470446C6
:103190000D4600260FF22819DFF80C0184421CBFEF
:1031A000DFF80801844212D0DFF8040184421CBF1A
:1031B000DFF8000184420AD0DFF8FC0084421CBF23
:1031C000DFF8F800844202D0C12100F069F82868D5
:1031D00010B9C22100F064F82879002818BF01282E
:1031E00006D0022818BF032802D0C32100F058F8E7
:1031F000E87930B1012818BF022802D0C42100F0BC
:103200004FF8012000FA06F8286808EA0000404557
:1032100041D177000320B8406FEA000A20680AEA2B
:103220000000206020682979B9400843206028798F
:10323000012818BF022825D16879002818BF012865
:1032400006D0022818BF032802D0D82100F028F8A1
:10325000A0680AEA0000A060A0686979B940084344
:10326000A060A879002818BF012802D0DF2100F053
:1032700017F8A08820EA0800A080A088A979B140AA
:103280000843A080E0680AEA0000E060E068E979AD
:10329000B9400843E060761C102EB2D3BDE8F08739
:1032A0004846FFF749BA000000000240000402400F
:1032B00000080240000C02400010024000140240CE
:1032C000433A5C55736572735C6162635C44726F10
:1032D00070626F785C574F524B5C28212953544DD4
:1032E00033324C5F707265706172696E675F666FD2
:1032F000725F326D31315C4C696272617269657303
:103300005C53544D33324C3178785F53746450655C
:10331000726970685F4472697665725C7372635C2F
:1033200073746D33326C3178785F6770696F2E63B8
:103330000000000070B504000D460FF2900618BFA3
:10334000012C0AD0022C18BF032C06D0042C18BF65
:10335000052C02D0BB2100F034F8002D18BF012D40
:103360001ED0022D18BF032D1AD0042D18BF052D15
:1033700016D0062D18BF072D12D0082D18BF092D05
:103380000ED00A2D18BF0B2D0AD00C2D18BF0D2DF5
:1033900006D00E2D18BF0F2D02D0BC2100F011F861
:1033A00005F00300800025F00301074A8B580F2524
:1033B0008540AB438B508B5804FA00F0184388507B
:1033C00070BD3046FFF7B8B908000140433A5C557C
:1033D000736572735C6162635C44726F70626F7874
:1033E0005C574F524B5C28212953544D33324C5F6C
:1033F000707265706172696E675F666F725F326D61
:1034000031315C4C69627261726965735C53544D11
:1034100033324C3178785F537464506572697068E8
:103420005F4472697665725C7372635C73746D334A
:10343000326C3178785F7379736366672E6300004E
:1034400070B5044620790FF2D406002818BF04286E
:1034500002D0812100F048F8607908281CBF0C28B0
:10346000102802D0822100F03FF82068C10DC90564
:1034700000D110B9832100F037F8A079254D60B351
:10348000012804D0842100F02FF8A07928B32968FE
:1034900022689143296069682268914369602179B3
:1034A00069180A6823681A430A60A9682268914368
:1034B000A960E96822689143E9606179226810296E
:1034C00007D1A9681143A960E96822681143E9603E
:1034D00070BD69180868104304E02079291808684D
:1034E00022689043086070BD3046FFF725B90FF29F
:1034F0002C00FFF721B910B50446E00DC00500D13E
:103500001CB94FF49271FFF7F2FF0348046010BD3D
:10351000000000000004014014040140433A5C55DF
:10352000736572735C6162635C44726F70626F7822
:103530005C574F524B5C28212953544D33324C5F1A
:10354000707265706172696E675F666F725F326D0F
:1035500031315C4C69627261726965735C53544DC0
:1035600033324C3178785F53746450657269706897
:103570005F4472697665725C7372635C73746D33F9
:10358000326C3178785F657874692E6300000000D2
:1035900070B50446E0780FF29405002818BF0128A2
:1035A00003D08C212846FFF7C7F86078102803D392
:1035B0008D212846FFF7C0F8A078102803D38E216C
:1035C0002846FFF7B9F8227811460120E378E3B1E5
:1035D000124A126802F4E062C2F5E062120A6378ED
:1035E000C2F10405AB40A5780F2626FA02F22A4064
:1035F0001A4312010A4BCA5421784A11094B01F0AF
:103600001F01884043F8220070BD4911064B02F0AB
:103610001F02904043F8210070BD00000CED00E057
:1036200000E400E000E100E080E100E0433A5C55A6
:10363000736572735C6162635C44726F70626F7811
:103640005C574F524B5C28212953544D33324C5F09
:10365000707265706172696E675F666F725F326DFE
:1036600031315C4C69627261726965735C53544DAF
:1036700033324C3178785F53746450657269706886
:103680005F4472697665725C7372635C6D697363C3
:103690002E63000030B50020002203462F49304C35
:1036A00024784CB9545C242C07D19BB2CBB10023B5
:1036B000521CB2F5967FF5DB30BD472C06D19BB28C
:1036C000012B18BF032B0CD0042B03E0502C03D18B
:1036D0009BB2022BEBD104E0412C04D19BB2052B11
:1036E000E5D15B1CE4E72C2C04BF9BB2062BDED19A
:1036F0001C4B1C7844F001041C70521C92B202F165
:103700002204B4F5967FD7DAC418555C6570521C54
:1037100092B2401C0A28F7DBC01800244470501CE9
:1037200080B20022D418455C2573401C80B2521C24
:103730000B2AF7DBD21800241473421C92B200202B
:10374000C418555C2576521C92B2401C0C28F7DB3D
:10375000C01800210176012030BD00005403002074
:10376000F1030020880300203046FEF7E5BF38460D
:10377000FEF7E2BFF8B506460C4600250FF2FC073F
:10378000B6F1804F1CBFDFF8E40086421BD0DFF8A3
:10379000D80086421CBFDFF8D800864213D0DFF87D
:1037A000D40086421CBFDFF8BC0086420BD0DFF895
:1037B000C80086421CBFDFF8A800864203D04FF441
:1037C000FF61FFF7D4FF012C18BF022C0BD0042C93
:1037D00018BF082C07D0102C18BF402C03D040F283
:1037E000F971FFF7C4FF308AB189214020421CBF24
:1037F000002901252846F2BD70B504460D460FF29A
:103800007C06B4F1804F1CBFDFF8600084421BD0FF
:10381000DFF8540084421CBFDFF85400844213D008
:10382000DFF8500084421CBFDFF8380084420BD020
:10383000DFF8440084421CBFDFF82400844203D038
:1038400040F61F01FFF790FF4FF6A070054200D130
:103850001DB94FF40261FFF787FFE843208270BD76
:103860000010014000080140000800400004004032
:103870000010004000140040000C0140433A5C5529
:10388000736572735C6162635C44726F70626F78BF
:103890005C574F524B5C28212953544D33324C5FB7
:1038A000707265706172696E675F666F725F326DAC
:1038B00031315C4C69627261726965735C53544D5D
:1038C00033324C3178785F53746450657269706834
:1038D0005F4472697665725C7372635C73746D3396
:1038E000326C3178785F74696D2E63000348402133
:1038F00001800FF24800FEF735BD000018040240B9
:103900007047FEE7FEE7FEE7FEE7FEE7FEE7FEE7BD
:1039100080B5012080F31088FEF7ADFE002080F313
:10392000108801BD80B54FF4804000F08FF84FF44F
:103930008010BDE80240FFF7DEBD000055425F4940
:1039400052512D48646C00000EB400B582B003A93A
:10395000009100AB02460121034878440A30FCF78D
:10396000C9FB06BC5DF810FBF90F000062F30F22E3
:1039700062F31F42401810F0030308D0C91A1FD386
:10398000DB0748BF00F8012D28BF20F8022D1300E7
:1039900030B414461546103928BF20E93C00FAD847
:1039A000490728BF20E90C0048BF40F8042D8900D2
:1039B00028BF20F8022D48BF00F8012D30BC704709
:1039C000C91818BF00F8012DCB0728BF00F8012D3A
:1039D000704700000FF20400FEF7AEBE433A5C559C
:1039E000736572735C6162635C44726F70626F785E
:1039F0005C574F524B5C28212953544D33324C5F56
:103A0000707265706172696E675F666F725F326D4A
:103A100031315C4C69627261726965735C53544DFB
:103A200033324C3178785F537464506572697068D2
:103A30005F4472697665725C7372635C73746D3334
:103A4000326C3178785F7274632E630010B50400B5
:103A500002D034F43C3003D040F62301FFF7BAFF24
:103A6000004801E00C2800402103090C41F08001CE
:103A7000026802F0800262EA0101016010BD0000EC
:103A8000F0B585B004460D460FF2F446DFF8300479
:103A900084421CBFDFF82C04844202D0A52100F030
:103AA000F3F8286818B1DFF82014884202D3A62161
:103AB00000F0EAF8A88800281CBF02280A2802D0D3
:103AC000A72100F0E1F8E8884BF6FF77B0F5804FCA
:103AD00018BFB84202D0A82100F0D6F82889B0F566
:103AE000806F02D3A92100F0CFF86889B0F5806F0C
:103AF00018BF002802D0AA2100F0C6F8A889B0F5A6
:103B0000804F18BFB0F5404F02D0AB2100F0BCF899
:103B1000A68800A8FFF74DF90298DFF8B013B0FBB4
:103B2000F1F14FF6C07232400A43A28022884FF66C
:103B3000FE731A4022802A68DFF894339A4208D232
:103B40005200B0FBF2F082B2042A38BF042080B2E7
:103B50001EE0EB88BB4204D102EB4202B0FBF2F064
:103B600006E019235A43B0FBF2F040F4804080B2E3
:103B7000020504BF40F0010080B240F4004080B272
:103B800089B24FF4967251434FF47A7291FBF2F17D
:103B9000491C2184A083208840F0010020802088D7
:103BA0004FF6F5310840A988084369890843208009
:103BB000A88929890843208105B0F0BD70B5044665
:103BC0000D460FF2BC36DFF8F80284421CBFDFF866
:103BD000F402844203D04FF4937100F055F84DB1D4
:103BE000012D03D040F2271100F04EF8208840F05C
:103BF000010003E020884FF6FE710840208070BD70
:103C000070B504460D460FF27836DFF8B4028442F0
:103C10001CBFDFF8B002844203D04FF4D07100F033
:103C200033F84DB1012D03D040F2A11100F02CF872
:103C3000A08940F0010003E0A0894FF6FE71084022
:103C4000A08170BD70B504460D460FF23436DFF822
:103C5000700284421CBFDFF86C02844203D040F241
:103C60001A2100F011F85DB1012D03D040F21B21A3
:103C700000F00AF820884FF67F710840208070BD60
:103C8000208840F08000F9E73046FEF755BD38B592
:103C900004460D46DFF8280284421CBFDFF82402E8
:103CA000844203D040F2792100F013F8258231BD1F
:103CB00010B50446DFF8080284421CBFDFF8040296
:103CC000844203D040F2862100F003F8208AC0B27B
:103CD00010BD0FF2AC20FEF72FBDF8B504460D461F
:103CE00016460FF29C27764884421CBF75488442D2
:103CF00003D040F2CB3100F018F8002E18BF012E8F
:103D000003D04FF4737100F010F84FF6FF00054236
:103D100000D11DB940F2CD3100F007F8002EA08887
:103D200014BF2843A843A080F1BD3846FEF704BD68
:103D300010B50446624884421CBF6248844203D0E6
:103D400040F23941FFF7C5FFA08A218B40EA0140CC
:103D50000002000A10BDF0B583B006460D460024EF
:103D6000019400940FF21827554886421CBF55480D
:103D7000864203D04FF48E61FFF7D7FFB5F5000FF1
:103D800018BFB5F5800F3BD0B5F5001F18BFB5F5CE
:103D9000801F35D0B5F5802F18BFB5F5003F2FD067
:103DA000B5F5803F1CBF4B48854229D04A48854223
:103DB00018BFB5F1102F23D0484885421CBF484892
:103DC00085421DD0474885421CBF4748854217D0D1
:103DD000464885421CBF4648854211D04548854229
:103DE0001CBF454885420BD0444885421FBF44480C
:103DF00085424448854203D040F27141FFF795FF68
:103E00000096280F01902802000A019911B100992B
:103E1000143102E0000C00991831009100990968F2
:103E2000014218BF01242046FEBDF8B504460D46E8
:103E300000260FF24C17224884421CBF21488442BE
:103E400003D040F2DF41FFF770FF2F4885421CBFCF
:103E50002E48854227D02E4885421CBF2D488542DA
:103E600021D02D4885421CBF2C4885421BD0B5F17E
:103E7000012F1CBF2A48854215D02A4885421CBF05
:103E8000294885420FD0294885421CBF28488542D1
:103E900009D0284885421CBF2748854203D04FF4EB
:103EA0009C61FFF742FFA08800EA154000F4E06043
:103EB000A18A29421CBF002801263046F2BD00001D
:103EC0000054004000580040811A060040420F0094
:103ED000A1860100008000100040001000080010C2
:103EE000000400100002001000010010800000100B
:103EF0004000001010000010080000100400001026
:103F000002000010010000100080000100400001CC
:103F1000001000010008000100040001000200017F
:103F200080000006400000061000000208000002A9
:103F300004000002020000020100000270B5044605
:103F40000D460FF23C06034884421CBF02488442DF
:103F500004E000BF005400400058004003D040F28D
:103F60001A51FFF791FE42F2FF00054200D11DB940
:103F700040F21B51FFF788FEE843A08270BD0000AD
:103F8000433A5C55736572735C6162635C44726F43
:103F900070626F785C574F524B5C28212953544D07
:103FA00033324C5F707265706172696E675F666F05
:103FB000725F326D31315C4C696272617269657336
:103FC0005C53544D33324C3178785F537464506590
:103FD000726970685F4472697665725C7372635C63
:103FE00073746D33326C3178785F6932632E63009D
:103FF0001FB5624C00212046FFF7E0FD0020ADF820
:1040000004004BF6FF70ADF806003020ADF8080054
:104010004FF48060ADF80A00594800904FF480409A
:10402000ADF80C0000A92046FFF72AFD01224FF44D
:10403000E0612046FFF751FE00212046FFF7E0FD3A
:1040400000212046FFF7FEFD01212046FFF7B6FDC7
:104050001FBD38B5494C4B4D29462046FFF7E5FEBC
:10406000002804BFBDE83140FFF7C2BF2946204603
:10407000FFF764FF4448817901720121C171002179
:10408000417131BD70B5404C3C4D2846FFF750FEA4
:10409000606160693D49084060612069616910396B
:1040A00037D03B4A891A09D03E390BD0394A891A90
:1040B00048D0891E3DD0891E44D056E00120207092
:1040C00000201FE0E06838B92846FFF7F1FDA07234
:1040D00031480121017070BD607820B92846FFF792
:1040E000E7FDA0720CE06078401E217988420BDA6F
:1040F00066782846FFF7DCFDE168711801F8010CCD
:104100006078401C607070BD2846BDE87040FFF7C5
:10411000CFBD6078E0700120A0700020207060703A
:104120001E492846FFF717FE288840F48060288043
:1041300070BDA1710121617188B100F031F8A079E1
:10414000401C0AE058B100F02BF8A079401CA07187
:10415000607AA179814210D3401EA07170BDA17A0E
:104160002846BDE87040FFF792BD61690FF23C0040
:10417000FFF7EAFBBDE870403AE770BD005400402D
:10418000A086010000040001B0030020DFFF07004B
:10419000F2FF010040000400F103002010000010B5
:1041A000A179095C2846FFF772BD00005545763AB3
:1041B00020307825780D0A0010B40021354A1346C6
:1041C00053F8084B844207D1002342F8313002EB08
:1041D000C1014B6010BC7047491C53F8084B844226
:1041E0001EBF491C53F8084B84421EBF491C53F89C
:1041F000084B8442E8D0491C1029E1D310BC704719
:1042000070B40023234C254655F8086B8E4209D123
:10421000014604EBC303012A04BF5A6851185960D0
:1042200070BC70475B1C55F8086B8E421EBF5B1C50
:1042300055F8086B8E421EBF5B1C55F8086B8E420A
:10424000E6D05B1C102BDFD370BC704710B400218C
:10425000104A134653F8084B844204D102EBC100C4
:10426000406810BC7047491C53F8084B84421EBF7D
:10427000491C53F8084B84421EBF491C53F8084B95
:104280008442EBD0491C1029E4D3002010BC7047B5
:1042900000000000C00100202DE9F04104460D4659
:1042A00016461F4620780321084258D0204600F0C9
:1042B0009AF8002853D115B1D5E900018619012FCC
:1042C0003DD12088C00416D504F13D02A1692046E5
:1042D00000F0A6F88046626A02B92269E1682046C9
:1042E00000F09EF8A6EB08010E1AA26AE1682046CB
:1042F00000F096F8361A46BB20884FF44051084229
:104300000ED06068E0602061A06260616068E06279
:1043100004F23D00A06104F12400E061002060622D
:104320002DB104F13000D5E90223C0E90023208833
:104330004CF6FF61084020800020BDE8F081022F8C
:1043400003D04FB916F1010F09D03A46314694F91E
:10435000030000F06BF8064616F1010FCCD100F017
:104360008BF8232101604FF0FF30BDE8F0810000A1
:1043700038B500F087F80446208880042ED565689B
:1043800009E04A1B294600F07FF810F1010F18BF21
:1043900000280CD0451994F90300E1688D42F0D350
:1043A0000022002100F070F810F1010F0DD16068BB
:1043B000E0606061E062208840F400702080204668
:1043C00000F061F84FF0FF3032BD6568E56065616F
:1043D000E56220884DF6FF7108402080204600F0FD
:1043E00052F8002032BDF8B5A0B9C046C04600243E
:1043F0000A4D08264FF0FF37286820B1FFF7B8FFB5
:10440000002848BF3C462D1D761EF5D1C046C0464B
:104410002046F2BDBDE8F240AAE700007801002086
:10442000914201D2501A70470020704730B583B0D6
:1044300004000D00012A02D1FFF708FF07E0022A5D
:1044400007D100940020019069460C20ABBE2D18C6
:1044500001E0002A0CD10094019569460A20ABBE08
:10446000002805D1002221002800FFF7C9FE01E045
:104470000020C04303B030BD0148FDF705BD00007A
:10448000E40300207047704780B5002802D400F094
:1044900003F802BD002002BD80B5002901D1002033
:1044A00002BD012801D0022802D100F004F802BDAB
:1044B00000F011F802BD30B583B00C0015000120EA
:1044C00000F032F800900194029569460520ABBED9
:1044D000281A03B030BD10B584B0130000900191CC
:1044E00002930122040069460520ABBE181A210080
:1044F000FFF786FE04B010BD80B500F033F802006F
:104500000023DB431068984204D011000220ABBEA8
:10451000002010605068984204D0111D0220ABBEEC
:104520000020506001BD000010B584B0040000F010
:1045300019F8A100421810680021C94388420DD122
:1045400007A00090002C01D1002000E00420019081
:104550000320029069460120ABBE106004B010BD7C
:104560003A74740000487047B401002010B5044646
:10457000E0686169884252D3218849F202020A4008
:10458000022A08D008044CBF4FF400704FF4844056
:10459000084320803CE001F4C041B1F5C04F06D192
:1045A000A168884203D32046FFF71DFF80BB208807
:1045B0004FF44061084202BF606804F13D01884247
:1045C00017D14FF40070FCF73DFE606030B904F283
:1045D0003D006060E060401CA0600AE0218841F07E
:1045E00040012180E06000F50071A160A062606878
:1045F000E06260682061A0686061207840070AD5A9
:1046000002220021204600F00CF810F1010F02D127
:104610004FF0FF3010BD208840F4C04020800020C3
:1046200010BD70B50C461546FFF72CFF06462B460D
:1046300022460021FFF730FE04463046FFF723FFF5
:10464000204670BD2DE9F04500F10801026801EB3C
:104650008202406800F001034008400002EB800045
:104660000025AA460024A0460126374602E000277E
:10467000F44511D1824201D1BDE8F08552F804CB56
:1046800003B1CC4452F804EBE644F1E70D686D1831
:10469000091D51F804ABAA445545F7D066B115F988
:1046A000014B0026012705E00D686D18091D51F822
:1046B00004ABAA445545F7D0002C12D50FB115F81C
:1046C000018BF445D3D00CF8018B641CF9D40AE0BB
:1046D000F44518BF5545CBD015F8018B0CF8018B6C
:1046E000641E002CF4D50126C2E7000001780906FB
:1046F00027D500211C4A1368834204D1002342F8C5
:104700002130FCF741BE0121536883421EBF0221C4
:1047100093688342F2D00321D36883421EBF0421F1
:1047200013698342EAD00521536983421EBF0621E3
:10473000936983421EBF0721D3698342DED0FCF711
:1047400023BE002101804FF0FF31C17000F23D0116
:104750004160C160016181624161C162816100F1BA
:104760002401C161704700007801002038B504467B
:1047700020780321084202D06056002809D5C0469F
:10478000C0462046FFF7B2FFC046C0464FF0FF3597
:1047900027E02046FFF727FE0546C046C0462078A2
:1047A000400644BF6068FCF7EFFD0020606094F9AC
:1047B0000300022804D900F016F808B14FF0FF35C5
:1047C000A06B48B100F01CF808B14FF0FF35A06BAA
:1047D000FCF7DAFD0020A0632046FFF787FFC04604
:1047E000C046284632BD10B582B00200009269462C
:1047F0000220ABBE04001000FFF7DEFC200016BD57
:1048000000B583B00090FCF7CFFC019069460E2004
:10481000ABBE03B000BD000010B5144C206808B159
:10482000FFF7A4FF606808B1FFF7A0FFA06808B118
:10483000FFF79CFFE06808B1FFF798FF206908B117
:10484000FFF794FF606908B1FFF790FFA06908B116
:10485000FFF78CFFE06908B1FFF788FF0022002115
:104860004FF0FF30BDE81040FFF70EBE780100208A
:1048700038B505460846FFF705FE0446E06861695D
:10488000884204D32046FFF771FE002810D4E06868
:10489000401CE06000F8015D2088010504D440055B
:1048A0000CD5EDB20A2D09D12046FFF79CFD28B1A9
:1048B0002046FFF7E8FD4FF0FF3032BD2046FFF7FE
:1048C000E2FDE8B232BD000010B507497944183165
:1048D000064C7C44163404E0081D0A6851188847C9
:1048E0000146A142F8D110BD0800000030000000D0
:1048F0007FC8FFFF34020000C0010020000000005C
:1049000045FDFFFF02000000020000006C010000F6
:10491000C000000000000020BE01000000F009F807
:10492000002801D0FFF7D0FF0020FDF7D8FA00F0F3
:1049300002F80120704700F001B800000746FFF7B9
:104940006BFF384600F002F8FBE70000FFF7D4FDEC
:10495000024A11001820ABBEFBE700BF2600020090
:1049600038B504460D46284600F006F8A84218BFA0
:104970000024204632BD00000149FFF779BF00BF87
:10498000D00000200148804701480047F92700086F
:1049900095490008C046C046C046C046FFF7BEFF66
:1049A000FEF7AEBFFEF7ADBFFEF7ACBFFEF7ABBF85
:1049B000FEF7AABFFEF7A9BFFEF7A8BFFEF7A7BF85
:1049C000FEF7A6BFFFF7FEBFFFF7FEBFFFF7FEBF74
:1049D000FEF7A8BFFFF7FEBFFFF7FEBFFDF7AEBDB6
:1049E000FDF7C0BDFDF7C5BDFDF7CCBDFDF7D5BDDD
:1049F000FFF7FEBFFFF7FEBFFFF7FEBFFFF7FEBFEB
:104A0000FFF7FEBFFFF7FEBFFFF7FEBFFDF723BEB8
:104A1000FFF7FEBFFFF7FEBFFFF7FEBFFFF7FEBFCA
:104A2000FDF7C2BDFFF7FEBFFFF7FEBFFFF7FEBFFA
:104A3000FFF7FEBFFDF75DBDFDF772BDFFF7FEBFDF
:104A4000FFF720BBFFF705BBFFF7FEBFFFF7FEBF79
:104A5000FDF7D8BDFDF7EBBDFDF7BDBDFFF7FEBF10
:104A6000FFF7FEBFFDF7B0BDFFF7FEBFFFF7FEBFCC
:104A7000FFF7FEBFFFF7FEBFE400F8FFDC00FAFF20
:104A8000C00021010001040000CD000020CE000084
:104A900020CD000020CD000020CD000020CD000062
:104AA00020B4000020E0001F0204010104030020E4
:104AB000540300200403002004030020040300200A
:104AC0000D010020F4000020E0001F02080202B4E3
:104AD00002002004030020B4020020B4020020B42D
:104AE0000200204D01002034010020E000080304F2
:104AF00006080C10182030F90002010204F7001714
:104B000001020304060708090024F40090000020B5
:104B1000D000002010010020EC0008030406080C5F
:104B200010182030F9000B010203040102030406EF
:084B3000070809F8FF0101006C
:040000050800499511
:00000001FF
